:040000008231B12A6E
:1000080080312100111CC6292000111CC62911109D
:10001800E0309700C03096002200510B5928230089
:10002800B50A0319B60A033036022130031935021E
:10003800031C5028B501B6012100390B2C282200D9
:100048001530B60A3602031C2C28B6012100B90166
:1000580021003A0B382822001530B70A3702031C52
:100068003828B7012100BA0122004A0B5028210084
:10007800B608031D50282500C90A0319CA0A00300A
:100088004A02143003194902031C5028C901CA0145
:10009800630000000000000022002830CF0A4F0251
:1000A800031C5928CF01B301B30A490B9028033028
:1000B80024004202E8300319410203186728C10AE4
:1000C8000319C20A90280030C101C20144023C3021
:1000D8000319430203187428C30A0319C40A902891
:1000E8000030C301C40140023C3003193F02031829
:1000F8008128BF0A0319C00A90280030BF01C00137
:100108007D02183003197C0203188E28FC0A031993
:10011800FD0A9028FC01FD012200410BA3282400C0
:10012800AF0A0319B00A00303002023003192F0257
:10013800031CA328AF01B0012200AB01AB0A2200C7
:10014800430BB6282400B30A0319B40A0330340257
:10015800E83003193302031CB628B301B4012200A6
:10016800AD01AD0A2200440BC9282400B50A0319C1
:10017800B60A00303602053003193502031CC928B7
:10018800B501B6012200AE01AE0A2200450BDC28FB
:100198002400B70A0319B80A0030380205300319D9
:1001A8003702031CDC28B701B8012200AF01AF0AEF
:1001B8002200480BEF282400BD0A0319BE0A0030AC
:1001C8003E02053003193D02031CEF28BD01BE01A4
:1001D8002200B201B20A2200460B02292400B90A01
:1001E8000319BA0A00303A02023003193902031C13
:1001F8000229B901BA012200B001B00A2200470B56
:1002080015292400BB0A0319BC0A00303C0202303D
:1002180003193B02031C1529BB01BC012200B101D3
:10022800B10A2200420B28292400B10A0319B20A94
:1002380000303202023003193102031C2829B101AF
:10024800B2012200AC01AC0A220055080319A32907
:10025800D50BA32921004508053A031D402928008C
:100268002108A13A031D40292408AA3A031D402960
:100278002200CE01CE0A512921004508053A031D66
:10028800542928002108A23A031D54292408AA3A0F
:10029800031D542902302200CE00D401D40AA32918
:1002A80021004508153A031D642928002108A33AAE
:1002B800031D64293408AA3A031D642903304F2911
:1002C80021004508053A031D742928002108A43A8D
:1002D800031D74292408AA3A031D742904304F29E0
:1002E80021004508053A031D842928002108A53A5C
:1002F800031D84292408AA3A031D842905304F299F
:1003080021004508053A031D942928002108A63A2A
:10031800031D94292408AA3A031D942906304F295D
:1003280023001D1999299D1CA1291D129D13000048
:100338000000000023001D169D172100C5012200A2
:1003480057080319AB29D70BAB2921001116220036
:10035800580BB32923009E1CB3292200D801220080
:1003680039080319C629B90BC6294D08203A031DB7
:10037800C129B801B80ACD01C629CD01BA012000AA
:1003880095010B112100111EE3292000111EE329FC
:10039800220056080319DA29D6035908860087016E
:1003A800010823009A002200D90AE329D608031D70
:1003B800E229D801D80A21001112E32900002000FF
:1003C800911E092A2100911E092A230019082000DC
:1003D800A0000A302200D50015302100450203187C
:1003E800092A2200D408031D092A21004508203EB5
:1003F800860004308700200020088100280020089B
:10040800553A031D092A2100C50A8B190B1C09003E
:100418002700161B1613961F7D2A96139630220066
:10042800B90020304D0203187D2AB808031D7D2A23
:10043800BA08031D222ABA01BA0A7A2A3A0B7D2A77
:1004480020001508A100A2010B1D322A2200CD01AF
:100458002500E601E701E801E9017A2A00302202D5
:100468001530031921020030031C492A22023230B8
:10047800031921020318482A2200CD0A2500E6356F
:10048800E70DE80DE90D7A2A00302202333003190E
:100498002102031C7D2A003022025A30031921024E
:1004A80003187D2A22000130CD0AF400F501F60177
:1004B800F70125006608F8006708F9006808FA00DF
:1004C8006908FB00F835F90DFA0DFB0D7808F407FB
:1004D8007908F53D7A08F63D7B08F73D7708E9008D
:1004E8007608E8007508E7007408E6002000950122
:1004F8000B112700961C972A961022000330B4018E
:10050800B40A2100B70022008E1102302100A30096
:10051800A4012408F1002308F0009F31D927803175
:100528008831442080312700161C0900161022004B
:100538000330B501B50A2100B80022000E100230C0
:100548002100A500A6012608F1002508F000883141
:10055800D8208031883149200900893129292D0B7B
:100568005C2B0130B0313820823131082200A800DC
:10057800200030082200A7000030280205300319A7
:100588002702031CDA2A023028025D3003192702E9
:100598000318DA2AD30A23000A30BC0122005302C6
:1005A800031CE62AD301EF01EF0AE62A2300BC0A5E
:1005B80022000A30D30123003C02031CE62ABC01B6
:1005C8002200EF01FC3021009E051D30B03138209B
:1005D800823131082100B200200030082100B1002A
:1005E80003309E0401303202EA3003193102031845
:1005F8000A2B23007830B80AB901BA01BB013802C6
:10060800031C5A2BB8012100BE015A2B01303202BB
:10061800FF30031931020230031C272B320212303B
:10062800031931020318262B23003C30B90AB801FC
:10063800BA01BB013902031C5A2BB9012100BE01C2
:10064800BE0A5A2B0230320213300319310202302B
:10065800031C412B32022630031931020318402BA8
:1006680023001E30BA0AB801B901BB013A02031CC3
:100678005A2B0230BA01522B0230320226300319AB
:100688003102031C552B23000A30BB0AB801B901FB
:10069800BA013B02031C5A2B0330BB012100BE00E8
:1006A8005A2B2300B801B901BA01BB012200AD01E0
:1006B8002E0BAA2C0230B0313820823131082100AB
:1006C800B400200030082100B3002200CB08031D2D
:1006D800F02B23009931462182319931362182311C
:1006E800B43161248231983185208231B431722449
:1006F8008231031CA72B2500A40A0319A50A031994
:10070800A60A0319A70AA001A101A201A3012708AB
:1007180023002302031DA02B250026082300220204
:10072800031DA02B2500250823002102031DA02B53
:1007380025002408230020020318F02B2500873108
:1007480079278231F02B230067082000D10023008D
:1007580068082000D200230069082000D3009931DE
:1007680036218231B4316124823198318520823139
:10077800B431722482310318EC2B2500A00A031926
:10078800A10A0319A20A0319A30AA401A501A60133
:10079800A701230823002302031DE22B25002208BA
:1007A80023002202031DE22B250021082300210239
:1007B800031DE22B25002008230020020318F02B3C
:1007C8002500A001A101A201A3012200CC01F02B68
:1007D8002500A931FA218231993136218231B4318B
:1007E8006124823198317E208231230067082000FD
:1007F800D400230068082000D500230069082000E1
:10080800D600B431722482310330031C592C2100E4
:100818003402E830031933020318582C2500A80ABB
:100828000319A90A0319AA0A0319AB0A05302000FB
:10083800A300A401A501A601230023082000AA0003
:10084800230022082000A900230021082000A80076
:10085800230020082000A7008731C1278231250006
:100868002B0820002602031D492C25002A082000F9
:100878002502031D492C2500290820002402031DF8
:10088800492C25002808200023020318692C25007C
:1008980087318D278231CC0A2500A931FA2182318E
:1008A8002200CB01CB0A692C033021003402E83046
:1008B80003193302031C652C250087318D278231EB
:1008C800692C2500AA311522823122004B0BA82C55
:1008D8002300993146218231993136218231B43150
:1008E80061248231983185208231B4317224823179
:1008F800031CA32C2500A40A0319A50A0319A60A98
:100908000319A70A270823002302031D9B2C25008F
:10091800260823002202031D9B2C250025082300FE
:100928002102031D9B2C2500240823002002031804
:10093800A82C2500873179278231CB01A82C2500E6
:10094800A401A501A601A7012200AE01320BE52CE6
:100958002100A901AA01400BE32C0930B03138204D
:10096800823131082100AA00200030082100A900A6
:100978002A089731D7278231B431612482319831DE
:100988007E2082318631DF268231B4317224823171
:10099800031CE32C033021003502031CE32C003038
:1009A8002802333003192702031CDD2CFF30A70768
:1009B800A83DB431D82482319E315A268231220092
:1009C800B201A0312F0B79280330B03138208231A1
:1009D8003108E9003008E8005230B300F830B400BC
:1009E8004130B5002030C201C3004130C40069085D
:1009F800B1006808B000B4316124823197312527ED
:100A080082319D318F2582319731072782318A3192
:100A1800AA22823133082200A000200034082200D4
:100A2800A100200035082200A2009931302182312E
:100A3800B4316124823198317E2082318731682730
:100A4800823188317A2082318731BC2782318F31D7
:100A58004927823199316A2182318B310F238231C2
:100A6800873186278231B4317224823103184E2DA2
:100A78002100B508031D4E2D23006430B70A370244
:100A8800031C7A2DB7012100B501B50A2200AA017D
:100A9800AA0A7A2D993130218231B4316124823108
:100AA80098317E20823187316827823188317A20D7
:100AB80082318731BC2782318F3149278231993180
:100AC8006A2182318B310F23823187318627823127
:100AD800B43172248231031C7A2D02302100350290
:100AE80003187A2D2300B7012200AA019931302179
:100AF8008231B4316124823198317E208231B4311F
:100B0800AB248231B431722482310318972D21002D
:100B18003508023A031D972D0330B500883140206F
:100B28008231A0317728993130218231B431612462
:100B3800823198317E208231B431AB248231B43194
:100B480072248231031CBA2D21003508023A031D94
:100B5800BA2D220020082300AA0022002108230021
:100B6800AB00220022082300AC00952D99313021DA
:100B78008231B4316124823198317E208231B4319E
:100B88009E248231B431722482310318032E03303B
:100B980021003502031C032E2A089731D7278231FA
:100BA800B4316124823198317E2082318631DF264A
:100BB8008231B431722482310318FF2D03302100B1
:100BC8003502031CFF2D2500C30A0319C40A00308F
:100BD8004402063003194302031CFF2DC301C4015C
:100BE800B3310C23823121002A082300AE002100F2
:100BF80029082300AD002500BD01BE01952D9931BE
:100C080030218231B4316124823198317E208231A1
:100C1800B4319E248231B43172248231031C952D63
:100C2800033021003502031C952D2500BD0A031948
:100C3800BE0A00303E02C93003193D02031C952D3F
:100C48000330BD01BE0121003502031C952D05307E
:100C5800B5009E31552682312000A301A4019E31A2
:100C68005A268231362E22005D082000B600220066
:100C78005E082000B70022005F082000B80040305E
:100C8800B301B401B5000800B301B4004130B500A8
:100C980024005A082000B60024005B082000B70092
:100CA80024005C082000B800080063082000D10078
:100CB800240064082000D2002400650808006608A3
:100CC8002000D100240067082000D2002400680812
:100CD80008006C082000D10024006D082000D20014
:100CE80024006E080800D101D201D3012400450870
:100CF8002000D400240046082000D500240047081E
:100D08002000D600080069082000D10024006A08E5
:100D18002000D20024006B080800D101D201D301C1
:100D280023003D082000D40023003E082000D50001
:100D380023003F082000D6000800A9000330AA00BD
:100D4800220026082000A400220025082000A30075
:100D58003D30A500A6010800C201C3004230C4000E
:100D680022000800A9000330AA0021003008200052
:100D7800A40021002F082000A3003D30A500A601F3
:100D8800080026082000B100220025082000B00035
:100D98000800B301B401B501B601B701B801B90142
:100DA800BA010800220024082000B100220023080C
:100DB8002000B0000800230052082000D4002300BF
:100DC80053082000D500230054082000D60008004E
:100DD800230061082000D100230062082000D2000F
:100DE800230063082000D300080033082500E00032
:100DF800200034082500E100200035082500E20025
:100E080008003308D4003408D5003508D600080097
:100E180042082400C500200043082400C600200022
:100E280044082400C70008006D082000D1002300F2
:100E38006E082000D20023006F082000D3000800AD
:100E480042082300BD00200043082300BE00200004
:100E580044082300BF00080069082000B3002200EE
:100E68006A082000B40022006B0808006608200009
:100E7800B300220067082000B400220068080800B8
:100E880063082000B300220064082000B400220098
:100E98006508080060082000B300220061082000EF
:100EA800B400220062080800A030D101D20040340A
:100EB800B701B801B901BA01BB01BC0108002000A3
:100EC800B3004C30B4003D340530A500A601210024
:100ED8005B082000A300A40108002000D300F43020
:100EE800D401D5004330D60008000230A401A50182
:100EF800A601A7012200CC0008002000A301A30A34
:100F0800A40108004208D4004308D5004408D600CC
:100F18000800A801A901AA01AB012200CC01080020
:100F28004208D1004308D2004408D3000800AF0AA1
:100F38000319B00A03303002E934B10A0319B20ABE
:100F4800003032023334B30A0319B40A00303402D1
:100F580065342A08B1002908B00008002000B30051
:100F68004C30B4003E342408AC002308AB00080021
:100F78002408AC002308AB000800AB01AC01AD01AC
:100F8800AE0126082504240423040319F72FAF0112
:100F9800AF0AA61BD42FA335A40DA50DA60DCC2FE3
:100FA800AB35AC0DAD0DAE0D26082A02031DE62F9C
:100FB80025082902031DE62F24082802031DE62F11
:100FC80023082702031CF12F2308A7022408A83BA3
:100FD8002508A93B2608AA3B2B14A636A50CA40C69
:100FE800A30CAF0BD42F2E08A6002D08A5002C08A3
:080FF800A4002B08A30008006F
:101080000E1128001E15080021008D1628001711CA
:10109000080021000C1620001C110800FE001200A0
:1010A0001E000130FE020030FF3B7F087E04031962
:1010B00000344F286400013080010131FE0200300D
:1010C000FF3B7F087E04031900345B28003416348C
:1010D000443400345C3443340034483442340534FE
:1010E0000034053400340134003401340034013458
:1010F00001340134A701A801231C82282508A70771
:101100002608A83DA535A60DA436A30C2408230463
:10111000031D7C282808A4002708A3000800003429
:10112000243442340034A434423400344034413452
:1011300014344E34413429345C3441343D346A34FF
:1011400041345234783441343334833441340034BC
:10115000203441340034C83442340034C83442347A
:101160000034C83442340034C834423401340034CA
:101170001034013400344034413466348234413414
:101180009A34813441340034403441348F344A3409
:1011900041340034903440340034803440340034DE
:1011A000203441340034C034403400347C34423480
:1011B0007108A6007008A50001307102E93003191A
:1011C00070020318F8287108F3007008F200F33673
:1011D000F20CF336F20C720826009C0070080339FA
:1011E000F200F20E1E087206CF3972069E00080049
:1011F0007A3026009C00CF309E050800FF30AA0000
:10120000AB00A5032508FF3A03192329230886000C
:101210002408870001082A06A600A701A801A90141
:10122000A30A0319A40A013E8400B830273D8500B3
:1012300000082B06AA00013026078400B930273D9C
:101240008500000800292A08A400A3012B08A30494
:10125000080070308400233085008030FE00FF01DC
:1012600088315A208931A030FC01FD01E801E901F3
:10127000EA01EB018400003085002930FE000030D7
:10128000FF0088315A2089312030840001308500E8
:101290003A30FE000030FF0088315A208931A030FA
:1012A0008400013085003230FE000030FF008831BC
:1012B0005A20893120308400023085003A30FE0007
:1012C0000030FF0088315A208931A030840002307C
:1012D00085004030FE000030FF0088315A208931FF
:1012E00020308400033085001530FE000030FF0000
:1012F00088315A208931A030840003308500503075
:10130000FE000030FF0088315A20893120308400EF
:10131000043085005030FE000030FF0088315A2034
:1013200089316630840088308500C93086000030FD
:1013300087000030FF00143088314E208931A430FE
:101340008400883085005A308600013087000030E4
:10135000FF00163088314E208931BA308400883041
:101360008500D2308600013087000030FF001E303B
:1013700088314E2089318F308400883085005A3082
:101380008600023087000030FF00153088314E2083
:1013900089312500BF30E6004030E700ED30E8003D
:1013A0001030E9002000D429C42389314E2489312A
:1013B0003022893164002200330BE329A831452013
:1013C00089312200B301380B052A25006908200065
:1013D000E300250068082000E200250067082000DF
:1013E000E100250066082000E0009931A62189313E
:1013F0002200CD01BA012500E601E701E801E9017B
:10140000200095010B112200B8018231B3228931ED
:101410009A31B322893123001D19102A9D1C182AE4
:101420001D129D1300000000000023001D169D17D3
:101430002200540BDA2990311520893123001D191F
:10144000232A9D1C2B2A1D129D1300000000000062
:1014500023001D169D172100C5012200D401DA29A1
:101460002000181422002030D101D10AC101C10A84
:10147000C301C30AC401C40AC501C50AC601C60A1C
:10148000C801C80AC701C70AC201C20A2000AB00CE
:101490000330AC009D31F62589319F31D427893145
:1014A0009D31F6258931BD30AB000130AC009D3156
:1014B000F62589314530AB000230AC009D31F62570
:1014C00089319E31D62689310F239F316427893196
:1014D0009F31172789319831352089319D318F25EA
:1014E0008931973107278931AA2298318C20893197
:1014F0009F3108278931983157208931983135201B
:1015000089319D318F258931973107278931AA2269
:1015100089313308D1003408D2003508D3009A301D
:10152000B3009930B4003E30B5005108B6005208FF
:10153000B7005308B800AA22983198202200C901A8
:101540002400C101C201C301C401BF01C001FC01EB
:10155000FD0108003308B9003408BA003508BB00A3
:1015600003103A0D3B0DBC00BC08031DBB2AB301A0
:10157000B401B50108003608B9003708BA003808C8
:10158000BB0003103A0D3B0DC100C108031DCC2A5E
:10159000B301B401B501080041087B3EBC07350822
:1015A000C1003808C1068030C105FF30B417B71735
:1015B000B605B7050730B801BD01BE01BF01C000C7
:1015C000331CE52A3608CF278931B536B40CB30C65
:1015D000B635B70DB80DC00BE02A0930C000331C7A
:1015E000F42A3608CF278931B536B40CB30CBF3690
:1015F000BE0CBD0CC00BEF2A3D08A3003E08A400A2
:101600003F08A5003C08A6004108A7009E3185269A
:101610002308B3002408B4002508B50008004208D8
:10162000C8004308C9004408CA000310490D4A0D08
:10163000CD004508C8004608C9004708CA00031085
:10164000490D4A0DCC004D080319322B4C084D02B0
:101650004C0803183A2BC8004D08C802193048023C
:10166000031C392B4508C2004608C3004708C400C4
:1016700008004C08031908004D084C020318482BB9
:101680004D08C8004C08C802193048020318080069
:101690000630CB00C41BCB17C71B4B17C317C401A5
:1016A000C617C7014C084D0203186D2BC535C60D72
:1016B000C70DCC034C084D060319682BCB034B0810
:1016C00007390319682B562BC436C30CC20CCD0A3C
:1016D0004D084C060319872B642B4D084C02031848
:1016E000872BC235C30DC40DCD034C084D0603191D
:1016F000832BCB034B0807390319832B712BC73678
:10170000C60CC50CCC0A4D084C06031D7F2BCB1F05
:10171000922BFF30C206C306C406C20A0319C30ACD
:101720000319C40A4B1F9D2BFF30C506C606C7060A
:10173000C50A0319C60A0319C70ACB014208C5071F
:101740004308C63D4408C73DC71FB12BFF30C5063F
:10175000C606C706C50A0319C60A0319C70ACB017C
:10176000CB0A4508A3004608A4004708A5004D0879
:10177000A6004B08A7009E3185262308C200240836
:10178000C3002508C40008000F24893117248931BB
:1017900009248931302489313D248931D523893187
:1017A000EA23893176278931522C8D172700951726
:1017B000961321000D172700151716130B108B1504
:1017C000210095129511073095040B112000950109
:1017D0008B1208002100D5278D150D150D169E17AB
:1017E0001E088F3960389E001E1103309E042200AF
:1017F0001708FC390138970097179716171621001C
:101800001D08833974389D001D1011132000111319
:10181000080021000D170E178E160E1608007030E6
:10182000210099001708C1391C38970008002300CF
:101830008C018D01D5270D168D150D1521008C17E6
:101840008E148E110E1022008E110E1021000E1516
:101850008D160C168D140D140C1322000C17080095
:10186000E03020009700C030960060309800991357
:1018700021001114200018100800403023009B00A4
:1018800003309C0008309F0021000E178E172300A4
:101890009E0190309D00210091160800B2319622E1
:1018A00089315F2C21000D148D142700141416109B
:1018B000941496100B108B150B178B170800003023
:1018C000322789312000D100013032278931C027E9
:1018D0008931492789312B082100C90020002C08B3
:1018E0002100CA0020002D082100CB000230322741
:1018F00089312000D100033032278931C027893156
:10190000492789312B082100CC0020002C08210018
:10191000CD0020002D082100CE000430322789316F
:101920002000D200652789312B082200E00020002A
:101930002C082200E10020002D082200E2000530E2
:10194000322789312000D200652789312B082200F7
:10195000E30020002C082200E40020002D082200D3
:10196000E5000630322789312000D2006527893111
:101970002B082200E60020002C082200E7002000AF
:101980002D082200E8000730322789312000D200DC
:10199000652789312B082200E90020002C0822004D
:1019A000EA0020002D082200EB00083032278931A0
:1019B0002000D200652789312B082100CF002000AC
:1019C0002C082100D00020002D082100D100093072
:1019D000322789312000D20052082100DB000A3072
:1019E000322789312000D20052082100DA000B3062
:1019F000322789312000D2002100C7000C30C801F5
:101A0000322789312000D2002100D2000D30D301CD
:101A1000322789312000D2002100D4000E30D501B8
:101A2000322789312000D2002100D6000F30D701A3
:101A3000322789312000D2002100D8001030D9018E
:101A4000322789312000D2002200EC001130ED0154
:101A5000322789312000D200EB00083E0739090700
:101A60000907123E32272000D1009731152789310E
:101A7000133E32278931C027893149272B0823009B
:101A8000A70020002C082300A80020002D08230018
:101A9000A9002000973115278931143E32272000F4
:101AA000D100973115278931153E32278931C0275A
:101AB000893149272B082300AA0020002C08230085
:101AC000AB0020002D082300AC00200097315927DF
:101AD0008931123E32272000D100973159278931B0
:101AE000133E32278931C027893149279731592739
:101AF0008931143E32272000D1009731592789318E
:101B0000153E32278931C0278931492797315F2710
:101B10008931123E32272000D10097315F27893169
:101B2000133E32278931C0278931492797315F27F2
:101B30008931143E32272000D10097315F27893147
:101B4000153E32278931C0278931492797315327DC
:101B50008931123E32272000D10097315327893135
:101B6000133E32278931C0278931492797315327BE
:101B70008931143E32272000D10097315327893113
:101B8000153E32278931C0278931492797314D27A2
:101B90008931123E32272000D10097314D278931FB
:101BA000133E32278931C0278931492797314D2784
:101BB0008931143E32272000D10097314D278931D9
:101BC000153E32278931C0278931492797313B2774
:101BD0008931123E32272000D10097313B278931CD
:101BE000133E32278931C0278931492797313B2756
:101BF0008931143E32272000D10097313B278931AB
:101C0000153E32278931C02789314927973141272D
:101C10008931123E32272000D10097314127893186
:101C2000133E32278931C02789314927973141270F
:101C30008931143E32272000D10097314127893164
:101C4000153E32278931C0278931492797314727E7
:101C50008931123E32272000D10097314727893140
:101C6000133E32278931C0278931492797314727C9
:101C70008931143E32272000D1009731472789311E
:101C8000153E32278931C0278931492789313630BD
:101C9000322789312000D20052082100BD003730A0
:101CA000322789312000D20052082100BC00383090
:101CB000322789312000D2002100B600B608031D6A
:101CC000642E0430C600652EC601393032278931B2
:101CD0002000D2002100BB0048084704031D772ED6
:101CE00023000130A301A201A100F430962E470881
:101CF0002000A300210048082000A4000430A50112
:101D0000A601AA01A901A8003830A700DB27893164
:101D100026082300A300200025082300A20020009D
:101D200024082300A100200023082300A000210094
:101D30005B03031D302F83302400EC00FE30ED00E8
:101D40004330EE00D830E900F430EA004330EB00D5
:101D50002E30E600EB30E7004330E8008430E3004B
:101D6000E130E4004330E5004D30E000C130E100F7
:101D70004330E2007E302200DA000430DB004430E1
:101D8000DC007A302300D8000230D9004430DA0079
:101D90004D30DB00C130DC004330DD00EE30DE00D2
:101DA000CB30DF004330E0004830D5000330D600B0
:101DB0004430D7003430D201D3004330D400EF3068
:101DC0002200DD002330DE004330DF0023007A30C4
:101DD000ED01EE004430EF000730E101E200433056
:101DE000E300F030E401E5004230E600200074300A
:101DF000C201C3004230C4002030B301B4004130FE
:101E0000B500210049082000B60021004A08200042
:101E1000B70021004B082000B800AA2299313F21C9
:101E200089319D318F2542082300EA0020004308B4
:101E30002300EB00200044082300EC00EF30E70013
:101E40002330E8004330E9002400AC30DD01DE003F
:101E50004230DF003030DA01DB004230DC000800C5
:101E6000000008002000A300362F2000640023009B
:101E70009518352F200023082300910092013F3050
:101E8000950515140310151803140030093D1308A7
:101E90000800AE01AC1F532FAB09AC09AB0A031904
:101EA000AC0AAE01AE0A2B08A3002C08A4008E30A9
:101EB000A501A6002E08A7009E3185262308AB00A9
:101EC0002408AC002508AD0008002000AF00A300E6
:101ED0008E30A401A501A600A7019E318526230806
:101EE000AB002408AC002508AD00080021000E1549
:101EF0008D160C1622001D17FF3028009D002500AE
:101F0000C82789311E08FC3902389E009101CF3064
:101F1000930520009311873028009E051E11FC3088
:101F20009E059F3096002600C827893125001E088F
:101F3000CF3910389E0026009101CF309305200044
:101F400093108730280097051711FC3097059F30B4
:101F500020009B0026001E08F0390C389E003F3000
:101F60009E05FC3025009F0526009C01CF309E0574
:101F70002000911087309C051C11FC309C05080046
:101F80002000D2005108AC00AB015208AB0408009D
:101F90001308F0390C3893003F3093050800BD0753
:101FA0003708BE3D3808BF3D08000C148C140C15D2
:101FB0008C158C160800AB01AC01AD01AE01231CE1
:101FC000E92F2708AB072808AC3D2908AD3D2A08B2
:101FD000AE3DA735A80DA90DAA0DA636A50CA40CDB
:101FE000A30C2608250424042304031DDF2F2E0838
:101FF000A6002D08A5002C08A4002B08A3000800AB
:10202A00CB2E28002108A13A031DDF2E2130F227EA
:10203A008831FE2090312408E400CB279031031D1B
:10204A00DF2E2000C027993136219031B431612426
:10205A00903125279D318F25903107278A31AA2271
:10206A00903133082400AC00200034082400AD006D
:10207A00200035082400AE0052302000B300F830AA
:10208A00B4004130B5002030C201C3004130C40061
:10209A006908B1006808B000B4316124903125277D
:1020AA009D318F25903107278A31AA229031330832
:1020BA002200A000200034082200A10020003508D8
:1020CA002200A2002000C027210099317D219031F1
:1020DA00B4316124903125279D318F25903107270E
:1020EA008A31AA22903133082400A900200034083A
:1020FA002400AA00200035082400AB009A302000F2
:10210A00C2001930C3003E30C40021002A08D72774
:10211A00B4316124903125279D318F2590314208B1
:10212A002400A300200043082400A400200044083F
:10213A002400A5009A302000C2009930C3003E3026
:10214A00C400993197219031B43161249031252707
:10215A009D318F25903142082400A60020004308B3
:10216A002400A700200044082400A80021005B0ED8
:10217A00F03940042200D00055302700A000B130C9
:10218A00A10024002C082000C50024002D082000EE
:10219A00C60024002E08FF269D318F2590310E2778
:1021AA009E310026903151082700A20024002C08F5
:1021BA002000D10024002D082000D20024002E087F
:1021CA002000D3009E310026903151082700A30039
:1021DA00220020082000C500220021082000C60095
:1021EA0022002208FF269D318F2590310E279E312D
:1021FA000026903151082700A40022002008200060
:10220A00D100220021082000D2002200220820004A
:10221A00D3009E310026903151082700A5002400E2
:10222A0029082000C50024002A082000C60024002E
:10223A002B08FF269D318F2590310E279E310026CF
:10224A00903151082700A600240029082000D10057
:10225A0024002A082000D20024002B082000D300E2
:10226A009E310026903151082700A7002400230838
:10227A002000C500240024082000C60024002508E8
:10228A00FF269D318F2590310E279E3100269031F1
:10229A0051082700A800240023082000D1002400A8
:1022AA0024082000D200240025082000D3009E31F3
:1022BA000026903151082700A90024002608200092
:1022CA00C500240027082000C60024002808FF268D
:1022DA009D318F2590310E279E310026903151086D
:1022EA002700AA00240026082000D100240027087D
:1022FA002000D200240028082000D3009E310026A6
:10230A00903151082700AB00220050082700AC008A
:10231A00210032082700AD00210031082700AE0055
:10232A0021002E082700AF0021002D082700B00049
:10233A00220028082700B100220027082700B2003F
:10234A0020001527123E8F31322790312700B30023
:10235A0020001527133E8F31322790312700B40011
:10236A0020001527143E8F31322790312700B500FF
:10237A0020001527153E8F31322790312700B600ED
:10238A0020005927123E8F31322790312700B7009B
:10239A0020005927133E8F31322790312700B80089
:1023AA0020005927143E8F31322790312700B90077
:1023BA0020005927153E8F31322790312700BA0065
:1023CA0020005F27123E8F31322790312700BB0051
:1023DA0020005F27133E8F31322790312700BC003F
:1023EA0020005F27143E8F31322790312700BD002D
:1023FA0020005F27153E8F31322790312700BE001B
:10240A0020005327123E8F31322790312700BF0018
:10241A0020005327133E8F31322790312700C00006
:10242A0020005327143E8F31322790312700C100F4
:10243A0020005327153E8F31322790312700C200E2
:10244A0020004D27123E8F31322790312700C300DA
:10245A0020004D27133E8F31322790312700C400C8
:10246A0020004D27143E8F31322790312700C500B6
:10247A0020004D27153E8F31322790312700C600A4
:10248A0020003B27123E8F31322790312700C700A8
:10249A0020003B27133E8F31322790312700C80096
:1024AA0020003B27143E8F31322790312700C90084
:1024BA0020003B27153E8F31322790312700CA0072
:1024CA0020004127123E8F31322790312700CB005E
:1024DA0020004127133E8F31322790312700CC004C
:1024EA0020004127143E8F31322790312700CD003A
:1024FA0020004127153E8F31322790312700CE0028
:10250A0020004727123E8F31322790312700CF0013
:10251A0020004727133E8F31322790312700D00001
:10252A0020004727143E8F31322790312700D100EF
:10253A0020004727153E8F31322790312700D200DD
:10254A00EC273230A5008831FE2090311B279031CC
:10255A00D30021002B082700D400AA30D500DF2E93
:10256A0028002108A23A031DDF2E2130F2278831E4
:10257A00FE2090312408E400CB279031031DDF2E82
:10258A0055302700A000B230A10030279031FF2635
:10259A009D318F2590310E279E31002690315108AA
:1025AA002700A2008C279E3100269031510827006F
:1025BA00A300ED269D318F2590310E279E310026EE
:1025CA00903151082700A40099279E3100269031A6
:1025DA0051082700A50065279E3100269031510831
:1025EA002700A600B3279E31002690315108270004
:1025FA00A700A6279E310026903151082700A8007F
:10260A007F279E310026903151082700A9007227A2
:10261A009E310026903151082700AA0021005A084D
:10262A002700AB00210047082700AC002100520810
:10263A002700AD00210054082700AE0021005608EB
:10264A002700AF00210058082700B00022006C08BC
:10265A002700B100EC271130A5008831FE20903107
:10266A001B279031B20021002B082700B300AA30A3
:10267A00B400DF2E28002108A33A031DDF2E2130E3
:10268A002000A3000430A4001130A5008831FE20E8
:10269A0090312408E4002308E30064082800320685
:1026AA00031D5B2B2000630828003306031DDF2E61
:1026BA0022082000AC00280023082000AB008F313C
:1026CA00492790312B082100C90020002C0821003D
:1026DA00CA0020002D082100CB0028002408200071
:1026EA00AC00280025082000AB008F314927903123
:1026FA002B082100CC0020002C082100CD0020004E
:10270A002D082100CE00280026088F316527903138
:10271A002B082200E00020002C082200E100200003
:10272A002D082200E200280027088F316527903102
:10273A002B082200E30020002C082200E4002000DD
:10274A002D082200E500280028088F3165279031DE
:10275A002B082200E60020002C082200E7002000B7
:10276A002D082200E800280029088F3165279031BA
:10277A002B082200E90020002C082200EA00200091
:10278A002D082200EB0028002A088F316527903196
:10279A002B082100CF0020002C082100D0002000A7
:1027AA002D082100D1002000EA012100DC01DC0A09
:1027BA0028002B082100DA0028002C082100C70075
:1027CA00C80128002D082100D200D30128002E08B4
:1027DA002100D400D50128002F082100D600D701F6
:1027EA00280030082100D800D90128003108220029
:1027FA00EC00ED01210049082000D10021004A081F
:10280A002000D20021004B082000D300C830D40198
:10281A00D5004230D600B43172249031031C322ED6
:10282A009630D101D2004430D3002100490820005B
:10283A00D40021004A082000D50021004B082000BE
:10284A00D600B43172249031031C322EFA30D101F1
:10285A00D2004330D30021004C082000D4002100CC
:10286A004D082000D50021004E082000D600B431C2
:10287A0072249031031C322EC830DE2760082000F3
:10288A00D400220061082000D5002200620820003E
:10289A00D600B43172249031031C322EC830DE27A0
:1028AA0063082000D400220064082000D50022001A
:1028BA0065082000D600B43172249031031C322EF0
:1028CA00C830DE2766082000D400220067082000EE
:1028DA00D500220068082000D600B4317224903155
:1028EA00031C322EC830DE2769082000D4002200DB
:1028FA006A082000D50022006B082000D600B431F7
:10290A0072249031031C322EC830D101D2004230D9
:10291A00D30021004F082000D400210050082000D5
:10292A00D500210051082000D600B431722490311C
:10293A00031C322E21005A080319322E03305A0280
:10294A000318322E003048023D300319470203189B
:10295A00322E003053021930031952020318322E54
:10296A00003055021930031954020318322E003070
:10297A0057021930031956020318322E0030590231
:10298A001930031958020318322E003022006D0242
:10299A00193003196C02031CD42C2100322E302763
:1029AA009031FF269D318F2590310E279E310026CA
:1029BA0090315108DE000030A931BA2190318C27BC
:1029CA009E31002690315108DE000130A931BA212A
:1029DA009031ED269D318F2590310E279E310026AC
:1029EA0090315108DE000230A931BA21903199277D
:1029FA009E31002690315108DE000330A931BA21F8
:102A0A00903165279E31002690315108DE0004304E
:102A1A00A931BA219031B3279E310026903151084D
:102A2A00DE000530A931BA219031A6279E31002651
:102A3A0090315108DE000630A931BA2190317F2742
:102A4A009E31002690315108DE000730A931BA21A3
:102A5A00903172279E31002690315108DE000830ED
:102A6A00A931BA21903121005A082000DE000A302B
:102A7A00A931BA219031210047082000DE000B302D
:102A8A00A931BA219031210052082000DE000C3011
:102A9A00A931BA219031210054082000DE000D30FE
:102AAA00A931BA219031210056082000DE000E30EB
:102ABA00A931BA219031210058082000DE000F30D8
:102ACA00A931BA21903122006C082000DE001030B2
:102ADA00A931BA21903120007430C201C3004230BA
:102AEA00C4002030B301B4004130B50021004908C8
:102AFA002000B60021004A082000B70021004B0838
:102B0A002000B8008A31AA22903199313F219031B0
:102B1A009D318F25903142082300EA0020004308A6
:102B2A002300EB00200044082300EC00EF30E7000C
:102B3A002330E8004330E9002000F030B301B4004C
:102B4A0041309831352090319D318F2590310727BA
:102B5A008A31AA22903198318C2090312100983103
:102B6A00572090319831352090319D318F25903101
:102B7A0007278A31AA2290313308E0003408E1009D
:102B8A003508E2009A30B3009930B4003E30B500FF
:102B9A006008B6006108B7006208B8008A31AA2244
:102BAA009031983198209031210048084704031D3C
:102BBA00E52D23000130A301A201A100F430052E66
:102BCA0047082000A300210048082000A400043080
:102BDA00A501A601AA01A901A8003830A7008F31D2
:102BEA00DB27903126082300A300200025082300B4
:102BFA00A200200024082300A100200023082300AB
:102C0A00A0002100B601AA311A229031A931BA21B5
:102C1A00903104302100C600AA3103229031AA3132
:102C2A000A229031A931BA2190312C27A931FA21EF
:102C3A009031F927B330A100A130A201A20A2000E5
:102C4A00A3000330A4000230A5008831FE20903191
:102C5A001B279031E4279031DF2E55302700A00042
:102C6A00B330A1000230A200EC270230A50088315F
:102C7A00FE2090311B279031E42790310100DF2E8E
:102C8A0021005530C601C60A2700A000B430202E04
:102C9A0002302100C60055302700A000B530202E92
:102CAA002100C60122000C17CA012500C901CA0168
:102CBA00AA3103229031AA310A229031A931BA21CC
:102CCA0090312100B601B60AAA311A229031A931EF
:102CDA00BA2190319E31552690312000A301A401DA
:102CEA009E315A269031A931D72190319F315E27E2
:102CFA0090319D31132590319D31F12590319F31CD
:102D0A00702790319D313E25903122008E15A931D0
:102D1A00DC21903122000E14A931E1219031C83012
:102D2A00A300A4019D31132590319F31B027903122
:102D3A009D313E259031AA310F2290319D316C256B
:102D4A009031A301A4019D31132590312000A301E4
:102D5A00A4019D313E259031A931D72190319F316F
:102D6A005E2790319D31132590319D31F1259031A7
:102D7A009F31702790319D313E2590312C27A93102
:102D8A00FA219031F9279031B630202E4E08013AB7
:102D9A0003191628033A0319B52A013A03193F2BD6
:102DAA00073A0319452E013A03194D2E033A03191E
:102DBA00552EDF2E22002030CE012000A300043041
:102DCA00A4005030A501A601A700A8019E31BF2E7C
:102DDA0021004C082000C50021004D082000C60033
:102DEA0021004E082000C7008030C201C3004330D2
:102DFA00C40008002000C7008030C201C30043306D
:102E0A00C40008004208B6004308B7004408B800E6
:102E1A0008004208D1004308D2004408D300080041
:102E2A006B08083E0739090709070800240821002A
:102E3A00AC00200023082100AB002C082700080062
:102E4A003008C5003108C6003208C7000800220051
:102E5A00CC0125005534210049082000C500210075
:102E6A004A082000C60021004B0808006B08033EF0
:102E7A0007390907090708006B08023E07390907DD
:102E8A00090708006B08013E073909070907080006
:102E9A006B08043E07390907090708006B08053E55
:102EAA0007390907090708006B08073E07390907A8
:102EBA00090708006B08063E0739090709070800D1
:102ECA00220060082000D100220061082000D20000
:102EDA00220062082000D300080021004F082000C9
:102EEA00D100210050082000D20021005108200002
:102EFA00D3000800220069082000D10022006A08D5
:102F0A002000D20022006B082000D3000800210014
:102F1A0049082000D10021004A082000D2002100DF
:102F2A004B082000D300080021004C082000D100E3
:102F3A0021004D082000D20021004E082000D300B5
:102F4A000800220066082000D1002200670820003D
:102F5A00D200220068082000D3000800220063087B
:102F6A002000D100220064082000D2002200650857
:102F7A002000D30008007430B301B4004230B50019
:102F8A002030C201C3004130C40008002308E30016
:102F9A00640828002206031D080020006308280090
:102FAA00230608002000B100210029082000B000F3
:102FBA000800D101D2004230D30022000800A30049
:102FCA0021002B082700A400AA30A5000800A13080
:102FDA002000A3000330A40008002000A30004304E
:102FEA00A400A501A50A0800A801A901AA01AB012C
:062FFA002700A000080002
:10306A00B500C830C201C3004230C40021004C0878
:10307A002000C50021004D082000C60021004E088E
:10308A002000C7000800C201C3004230C40021006A
:10309A004F082000B300210050082000B40021008E
:1030AA00510808004F082000B300210050082000F2
:1030BA00B40021005108200008002000E400E501C6
:1030CA0065087D02031D080064087C020800F030D0
:1030DA00B301B4004130B50024005D082000B600F9
:1030EA0024005E082000B70024005F082000B80012
:1030FA0008003008D1003108D2003208D300080095
:10310A003008D4003108D5003208D6000800330848
:10311A002300BD00200034082300BE00200035082B
:10312A002300BF00080033082400C500200034082B
:10313A002400C600200035082400C7000800230028
:10314A005E082000D10023005F082000D20023007F
:10315A0060082000D3006908B1006808B0000800C0
:10316A002000D3006908B1006808B0000800A30075
:10317A00A40124082000A400210023082000A300A1
:10318A000800C10052085407C200520854075607E3
:10319A00C3005208540756075807C4005208540778
:1031AA005607580722006C07D20021004108080080
:1031BA00A500A60126082000A40021002508200059
:1031CA00A300080023005B082000D40023005C0849
:1031DA002000D50023005D082000D6000800300832
:1031EA00C2003108C3003208C400080022005D088A
:1031FA002000D40022005E082000D50022005F08CB
:10320A002000D600080026082000A4002100250876
:10321A002000A300080024082000A400210023089D
:10322A002000A3000800B500250063082000B600AE
:10323A00250064082000B700250065080800640816
:10324A002000D100230065082000D2002300660870
:10325A002000D300080020006908B1006808B00007
:10326A000800210034082000B100210033082000A2
:10327A00B00008003308C5003408C6003508C70086
:10328A0008006A082000D10023006B082000D20041
:10329A0023006C082000D3000800B500240045086C
:1032AA002000B600240046082000B7002400470882
:1032BA000800B50023003D082000B60023003E08A0
:1032CA002000B70023003F0808002B08C5002C087F
:1032DA00C6002D08C70022005A082000C20022009A
:1032EA005B082000C30022005C082000C40008001C
:1032FA0030082000B10021002F082000B00008008B
:10330A00B3009930B4003E30B500250060082000B3
:10331A00B600250061082000B700250062082000D9
:10332A00B800080021002E082000B10021002D0855
:10333A002000B0000800CD302000B3004C30B400AB
:10334A003D346108E400A12A000008002100360B80
:10335A000800BD01CA27A931BA2199312100BC014F
:10336A003C082000DE003730A931BA21993121000A
:10337A00AA310A229931A931BA2199312100C6010B
:10338A00AA3103229931552699312000A301A401BB
:10339A005A26A931D72199315E27993113259931B6
:1033AA00F1259931702799313E2522008E15A931D0
:1033BA00DC21993122000E14A931E1219931C8305A
:1033CA00A300A40113259931B02799313E25AA31CA
:1033DA000F2299316C259931A301A4011325993142
:1033EA002000A301A4013E25A931D72199315E27E6
:1033FA00993113259931F1259931702799313E2553
:10340A002200CC012500A931FA21A801A901AA01AB
:10341A00AB0108002100360B0800BD01BD0ACA270E
:10342A00A931BA2199312100BC01BC0AB529210070
:10343A00360B08000230BD00CA27A931BA219931DA
:10344A0002302100BC00B5292100360B362A013092
:10345A00BB0ABB053B082000DE003930A931BA217E
:10346A0099312100BB08031D3D2A360B3D2AC42988
:10347A003B0B0800360B0800C601AA31032299311A
:10348A00552699312000A301A4015A26A931D72132
:10349A0099315E27993113259931F1259931702790
:1034AA0099313E2522008E15A931DC21993122005D
:1034BA000E14A931E1219931C830A300A4011325C2
:1034CA009931B02799313E259931AB2799316C252D
:1034DA009931A301A401132599312000A301A40164
:1034EA003E259931AB2799316C259931C830A30013
:1034FA00A40113259931B02799313E259931AB277B
:10350A0099316C259931A301A40113259931200021
:10351A00A301A4013E259931AB2799316C25993134
:10352A00C830A300A40113259931B02799313E254B
:10353A009931AB279931EF296408003A0319A9296F
:10354A00103A03190F2A503A0319AB29103A0319F2
:10355A001C2AD83A0319292AB22A0800340BBB2A92
:10356A002500C501C6012200B401BA2A350BC32AB7
:10357A002500C701C8012200B501C22A2100C608D8
:10358A00031DF42A22004C0BE02A2A0BE02A6F0BB7
:10359A00E02A033021003E020318E02AC001C00AD3
:1035AA004008003A0319FC2A013A0319FF2B033A8F
:1035BA000319452C122D22004C08023A031DF12A48
:1035CA002A0BF12A6F0BF12A033021003E0203185D
:1035DA00F12A0230C000D52A2100C001D52A460BA3
:1035EA00F72AD32A4608023A0319EE2AF12A2200B8
:1035FA00C008031D7B2B552699312000A301A40185
:10360A005A26A931D7219931F1259931A301A4016B
:10361A00132599312000A301A4013E2599312200E6
:10362A008E110E1021004830A701A801A301A401A0
:10363A00A501A601A001A1004230A200C327993129
:10364A00CE279931F6259931D4279931F625993122
:10365A00BD30AB000130AC00F62599314530AB00E6
:10366A000230AC00F6259931D6268B310F239931D9
:10367A006427993117279831352099318F25973149
:10368A00072799318A31AA22993198318C209931A8
:10369A0008279831572099319831352099318F254B
:1036AA009731072799318A31AA22993176278A31A7
:1036BA00AA2299319831982099312200C90124000F
:1036CA00C101C201C301C401BF01C001FC01FD0166
:1036DA002200BE012000EA012100DC01DC0A2200EE
:1036EA00C001C00A2100B701B801B5012100B6081E
:1036FA00031D08002200400B0800552699312000BE
:10370A00A301A4015A26A931D72199315E279931FB
:10371A0013259931F1259931702799313E252200D7
:10372A008E15A931DC21993122000E14A931E1212B
:10373A009931C830A300A40113259931B0279931D2
:10374A003E259931AB2799316C259931A301A40102
:10375A00132599312000A301A4013E259931AB27F5
:10376A0099316C259931C830A300A40113259931E8
:10377A00B02799313E259931AB2799316C2599317A
:10378A00A301A401132599312000A301A4013E2518
:10379A009931AB2799316C259931C830A300A4011E
:1037AA0013259931B02799313E259931AB279931A3
:1037BA006C259931A301A401132599312000A30195
:1037CA00A4013E25A931D72199315E2799311325C4
:1037DA009931F1259931702799313E25023022001D
:1037EA00C000BB010C13CA01CA0A63000000000032
:1037FA0000000800350B0800A931D7219931F125BD
:10380A009931A301A401132599312000A301A40130
:10381A003E25993122008E110E1055269931B52771
:10382A00A700A801B431D82499315A269931CE2754
:10383A009931F6259931D4279931F6259931D62629
:10384A008B310F2399316427993129270230B70127
:10385A00B801B50020000730EB0AEB056B08DE0063
:10386A001130A931BA21220020082300AA0022001F
:10387A0021082300AB00220022082300AC00080024
:10388A00B708031DA72C552699312000A301A401CE
:10389A005A2699312000A301A401132522008E1172
:1038AA00A931D7219931B5279831BC2099311325EF
:1038BA009931BD302000AB000130AC00F6259931BA
:1038CA0017279831352099318F2597310727993154
:1038DA008A31AA22993198318C2099312927993134
:1038EA00B701B70A3F279631FF2699318F259731BD
:1038FA000E279931002699315627123EA931BA214D
:10390A0099319F279931002699315627133EA931BB
:10391A00BA21993189279631FF2699318F25973116
:10392A000E279931002699315627143EA931BA211A
:10393A00993193279931002699315627153EA93195
:10394A00BA2199312100B808031D0800552699317A
:10395A002000A301A4015A2699312000A301A40141
:10396A003E25993122000E10F1259931C3273230B4
:10397A0021009831DD2099313E25993145302000CA
:10398A00AB000230AC00F625993108279831572050
:10399A0099319831352099318F25973107279931F7
:1039AA008A31AA22993176278A31AA229931983105
:1039BA009820993129279931B801B80A3F279631B9
:1039CA00FF2699318F2597310E2799310026993193
:1039DA005627123EA931BA2199319F2799310026DB
:1039EA0099315627133EA931BA219931892796313F
:1039FA00FF2699318F2597310E2799310026993163
:103A0A005627143EA931BA219931932799310026B4
:103A1A0099315627153EA931BA29080024082100F0
:103A2A00A400200023082100A30001302000240262
:103A3A00E9300319230203183B2D2408A6002308A2
:103A4A00A500A636A50CA636A50C250826009100C9
:103A5A00200023080339A500A50E2600130820001C
:103A6A002506CF3925062600930008007A3026005D
:103A7A00FC2F24082100A600200023082100A5000D
:103A8A00013020002402E930031923020318662DAD
:103A9A002408A6002308A500A636A50CA636A50C60
:103AAA00250826009C00200023080339A500A50E3E
:103ABA0026001E0820002506CF39250626009E006E
:103ACA0008007A3026009C00CF309E050800A50128
:103ADA00A60124082602031D742D230825020318B3
:103AEA000800A701A8010000000000000000000073
:103AFA000000000000002000A70A0319A80A0330EA
:103B0A002802E83003192702031C782DA50A031995
:103B1A00A60A6E2D4508C8004608C9004708CA000B
:103B2A000310490D4A0DCF00CF08031DA02DC20175
:103B3A00C301C40108004208C8004308C900440878
:103B4A00CA000310490D4A0DD000D008031DB12D3B
:103B5A00C201C301C40108008930CC01CD01CE01E4
:103B6A005007C800CF024708D0004408D00680306A
:103B7A00D0051830C617C701C317C401CB00CC350E
:103B8A00CD0DCE0D44084702031DD12D4308460230
:103B9A00031DD12D42084502031CDA2D4208C50235
:103BAA004308C63B4408C73B4C14C535C60DC70D70
:103BBA00CB0BC42D4C08A3004D08A4004E08A50049
:103BCA004F08A6005008A70085262308C20024082B
:103BDA00C3002508C400080021000C1620001C118F
:103BEA0008002C08A4002B08A3001530A501A60183
:103BFA00A700A801BF2EBC2799310310560D570DF7
:103C0A00DD00DD08031D0E2ED101D201D301D4013E
:103C1A000800BC2799311730D736D60CD50C890B3A
:103C2A00112E5508D800D217D3015108D9005208CD
:103C3A00DA005308DB008E30DC01DD02DD1F312E95
:103C4A005D08803A8F3E031C092EDC36DB0CDA0C49
:103C5A00D90CDD0F2A2E3E2E18305D020318092ECC
:103C6A00DD0803193E2ED935DA0DDB0DDC0DDD0337
:103C7A00352E580803194C2ED909DA09DB09DC0953
:103C8A00D90A0319DA0A0319DB0A0319DC0A5C08E0
:103C9A00D4005B08D3005A08D2005908D1000800A2
:103CAA0021000E1528001E11080024082100A80072
:103CBA00200023082100A7000330200024028530B9
:103CCA00031923020318822E2408A6002308A5003C
:103CDA00A636A50CA636A50C2508250091002000BD
:103CEA0023080339A500A50E250013082000250680
:103CFA00CF392506250093000800E1302500FC2F66
:103D0A00260803198D2E250824042304031D952E45
:103D1A00A301A401A5010800A60AA536A40CA30CB8
:103D2A00FE3025050319A32E912EA60AA30A03190C
:103D3A00A40A0319A50AA536A40CA30CFF3025056D
:103D4A000319AC2E9A2EA603A335A40DA50DA41F04
:103D5A00A82E261CA413A6362608AA00A901A80183
:103D6A002808A3042908A4042A08A5042708031D6F
:103D7A00A51708002408AA002308A9000130A702F1
:103D8A000030A83B270A0319280A03190800290842
:103D9A0086002A08870025088100A90A0319AA0AA9
:103DAA00C32E12302600A3008330A4003A30A500A7
:103DBA009630A601A701A801A901AA01AB01A00199
:103DCA00A1004230A20012302500CE008330CF007D
:103DDA003A30D000D101D201D301D401D501D601A4
:103DEA0020008030C201C3003F30C40023005508C0
:103DFA002000C500230056082000C60023005708EB
:103E0A002000C700080012302400C8008330C9000F
:103E1A003A30CA00CB01CC01CD01CE01CF01D0018D
:103E2A002100080012302300C0008330C1003A305C
:103E3A00C200C301C401C501C601C701C8012000EF
:103E4A00F030B301B40041342200C9012400C10199
:103E5A00C201C301C401BF01C001FC01FD0122006E
:103E6A00BE012000EA012100DC01DC0A2200C001B7
:103E7A0021000800B501220020082300A700220023
:103E8A0021082300A800220022082300A9002708ED
:103E9A002000C500230028082000C60023002908A6
:103EAA0008005108DE006B08083E073909070907B0
:103EBA00080022008E112000A301A4010800420874
:103ECA002500CB00200043082500CC002000440830
:103EDA002500CD00080022000E102000A301A40135
:103EEA0008003308E0003408E1003508E2009A309F
:103EFA00B3009930B4003E30B5006008B6006108DE
:103F0A00B7006208B80008002A082000C50023008C
:103F1A002B082000C60023002C0808002A082000CD
:103F2A00D10023002B082000D20023002C082000F7
:103F3A00D300080027082000D10023002808200009
:103F4A00D200230029082000D3000800C83020002E
:103F5A00A300A4010800C8302000A300A40108009F
:103F6A0021004830A001A1004230A2003234510899
:103F7A00D5005208D6005308D7000800230048305D
:103F8A00A401A5004230A60008003D082000DE007A
:103F9A00363420302000AB000330AC000800CB30B0
:103FAA00AB000230AC0008007108A4007008A3003E
:103FBA0001307102E930031970020318F92F7108F0
:103FCA00F3007008F200F336F20CF336F20C7208C2
:103FDA002600910070080339F200F20E13087206E7
:103FEA00CF397206930008007A302600FC2F910020
:063FFA00CF309305080022
:1040EE002200AF01300B66292100AF01B00140085C
:1040FE00023A031D64290430B0313820A031310852
:10410E002100B000200030082100AF0099317D2140
:10411E00A031B4316124A03198317E20A031983184
:10412E00FB20A031B4317224A0310318CA2821001B
:10413E003708023A031DCA28200086319126A03185
:10414E00B4317224A0310318CA2823008731A7275F
:10415E00A03103193302031C25290230B301B40127
:10416E0021009831BC20A0319D311325A03187311B
:10417E008127A0319D316C25A031A931D721A031E5
:10418E0022008E11C928210099317D21A031B43130
:10419E006124A03198317E20A0319831FB20A031CE
:1041AE00B4317224A031031C2229210099317D21C2
:1041BE00A031B4316124A03198317E20A0318631F6
:1041CE003726A0318A31AA22A03187310527A031A6
:1041DE00B4317224A0310318222921003708023A83
:1041EE00031D2229200086319126A031B43172247C
:1041FE00A0310318222923008731A727A0310319E4
:10420E003302031C25290330B301B4012100B7008A
:10421E0002309831BC20A0319D311325A031873159
:10422E008127A0319D316C25A031A931D721A03134
:10423E0022008E1121292300B301B40187311827E2
:10424E00A031210099317D21A031B4316124A031FA
:10425E0098318520A031B4317224A0310318612920
:10426E0021003708023A031D61292500C10A0319EE
:10427E00C20A00304202153003194102031C6429A0
:10428E0003302100B70025000530C101C201210015
:10429E009831BC20A0319D311325A0318731812763
:1042AE00A0319D316C25A031A931D721A03122003A
:1042BE008E1160292500C101C2012200B001A33177
:1042CE002B0B7B2B2100AD01AE014008023A031DE2
:1042DE00792B0030B0313820A03131082100AE00EA
:1042EE00200030082100AD008631EC26A031993136
:1042FE009721A031B4316124A03198318520A031AD
:10430E00B4317224A0310318B52921003708023ABE
:10431E00031DB5292500C50A0319C60A0030460239
:10432E00153003194502031CB82903302100B700CC
:10433E0002309831BC20A0319D311325A031873138
:10434E008127A0319D316C25A031A931D721A03113
:10435E0022008E112500C501C601B4292500C50114
:10436E00C6019831A420A031B4316124A031983116
:10437E008520A031B4317224A0310318D329210035
:10438E00370BD3290230B7002200C901C90A8E1596
:10439E00A931DC21B5311E2DB5310B2DEA08031DD7
:1043AE00DC292300BD01BE01BF0121005C0BE32906
:1043BE0020008030B301EA295C08023A031DED2982
:1043CE0033302000B300B4003F30112A5C08033AAA
:1043DE00031DF62966302000B300E630062A5C087D
:1043EE00043A031DFE2920008030B301062A5C0822
:1043FE00053A031D092A9A302000B3001930B40083
:10440E003E30112A5C08063A031D1C2ACD30873136
:10441E006327A13199315E21A1312000B8008A3184
:10442E00AA22A13198318C20A13121003E0B242AE1
:10443E0020003F30B301B4012C2A3E08023A031D7E
:10444E00382ACD308731B227A13199315E21A13181
:10445E002000B8008A31AA22A13198318C20A131D6
:10446E00402A3E08033A031D402A2300BD01BE0127
:10447E00BF012100BD08031D492AC608031D492A94
:10448E0020005F2A3D0B552AC608031D552A390305
:10449E000319532A3A0B6C2A00007A2A3D08023A75
:1044AE00031D7A2AC608031D7A2A20006A0B662A83
:1044BE003F30B301B40199315E21A131722A02302D
:1044CE006A02031C7A2A21004E2A9931A021A131B9
:1044DE0099311821A1312000B8008A31AA22A131C8
:1044EE0098318C20A13121003B0B842AC608031D74
:1044FE00842A2300BD01BE01BF012100BD30BF01D2
:10450E00BF0A2000D7000130D80021002E0820005D
:10451E00DA0021002D082000D900AC318124A13110
:10452E0057082400A000200058082400A1002000F5
:10453E0059082400A20020082000C20024002108EF
:10454E002000C300240022082000C40021002008FF
:10455E002000C500210021082000C60021002208ED
:10456E002000C7008B310F23A13142082100A0008B
:10457E00200043082100A100200044082100A200D1
:10458E0020082000D100210021082000D2002100A7
:10459E00220887317127A131B4317224A131031C55
:1045AE00DE2A2100F430A001A1004330F82A873121
:1045BE005827A131D300210020082000D40021006B
:1045CE0021082000D500210022082000D600B43199
:1045DE007224A131031CF92A2100A030A001A100F0
:1045EE004030A200210020082000D1002100210827
:1045FE002000D200210022082000D3009E31002688
:10460E00A13152082100A400200051082100A3006E
:10461E0023003F083E043D04031D182B2100A30177
:10462E00A401210099311021A1319D311325A13111
:10463E002200BE01492B230099312421A131993149
:10464E009721A131B4316124A13198318520A13156
:10465E00B4317224A1310318492B21003708023AD4
:10466E00031D492B003024020B3003192302031CB7
:10467E00432BFF30A307A43D99311021A1319D3169
:10468E001325A1312300AF01B001792B99313021CF
:10469E00A131B4316124A13198317E20A1319831FC
:1046AE00E720A131B4317224A1310318492B210026
:1046BE003708023A031D492B230087319B27A1316E
:1046CE0003192F02031C792B03302100B70002308F
:1046DE009831BC20A1319D311325A1312300AF01AA
:1046EE00B001782B2200AB012C0B682CA501A60182
:1046FE0021004008023A031D662C0B30B0313820E1
:10470E00A13131082200A600200030082200A500A9
:10471E008631C526A131B4316124A13198317E2074
:10472E00A1319831FB20A131B4317224A13103188B
:10473E00CC2B21003808023A031DCC2B20008631E9
:10474E007726A131B4317224A1310318CC2B23006A
:10475E008731A127A13103193102031C272C023006
:10476E00B101B20121009831DD20A1319D313E25EC
:10477E00A13187318127A1319D316C25A1319D3128
:10478E00F125A13122000E10CB2B22008631C52639
:10479E00A131B4316124A13198317E20A1319831FB
:1047AE00FB20A131B4317224A131031C242C220030
:1047BE008631C526A131B4316124A13198317E20D4
:1047CE00A13186313726A1318A31AA22A131873112
:1047DE000527A131B4317224A1310318242C2100F4
:1047EE003808023A031D242C200086317726A13189
:1047FE00B4317224A1310318242C23008731A12750
:10480E00A13103193102031C272C0330B101B2016F
:10481E002100B80002309831DD20A1319D313E25B6
:10482E00A13187318127A1319D316C25A1319D3177
:10483E00F125A13122000E10232C2300B101B2016B
:10484E0087311827A13122008631C526A131B43116
:10485E006124A13198318520A131B4317224A13166
:10486E000318632C21003808023A031D632C25001F
:10487E00BF0A0319C00A00304002153003193F0267
:10488E00031C662C03302100B80025000530BF0143
:10489E00C00121009831DD20A1319D313E25A1318D
:1048AE0087318127A1319D316C25A1319D31F125B3
:1048BE00A13122000E10622C2500BF01C001220082
:1048CE00AC01310B0800A301A40121004008023AFB
:1048DE00031DFD2F0830B0313820A13131082200E0
:1048EE00A400200030082200A3008631EC26A1315E
:1048FE008631D626A131B4316124A131983185207B
:10490E00A131B4317224A1310318B62C210038081C
:10491E00023A031DB62C2500C70A0319C80A003037
:10492E004802153003194702031CB92C033021002D
:10493E00B80002309831DD20A1319D313E25A131E4
:10494E0087318127A1319D316C25A1319D31F12512
:10495E00A13122000E102500C701C801B52C25007B
:10496E00C701C8019831A420A131B4316124A1310D
:10497E0098318520A131B4317224A1310318D42C81
:10498E002100380BD42C0230B8002200C901C90A0C
:10499E000E14A931E121A131E72C9831A420A131C7
:1049AE00B4316124A13198318520A131B431722402
:1049BE00A131031CE72C2100380BE72C2200C90182
:1049CE0099313021A131B4316124A13198317E2049
:1049DE00A1319831E720A131B4317224A131031CE9
:1049EE00D12F21003808023A031DD12F230099310F
:1049FE002421A1318631D626A131B4316124A131D1
:104A0E0098318520A131B4317224A131031CA62F17
:104A1E0021003808023A031DA62F52089831C620ED
:104A2E00A13198316220A1310318242D02306A027F
:104A3E000318242DEA01EA0A762D21004108983147
:104A4E006220A131031C382D2100420898316220CA
:104A5E00A1310318382D03306A020318382D0230A5
:104A6E00732D2100420898316220A131031C4C2D78
:104A7E002100430898316220A13103184C2D0430D7
:104A8E006A0203184C2D0330732D21004308983110
:104A9E006220A131031C602D210044089831622050
:104AAE00A1310318602D05306A020318602D043001
:104ABE00732D2100440898316220A131031C752DFD
:104ACE002200520898316220A1310318752D06304C
:104ADE006A020318752D0530EA00762DEA012100D1
:104AEE0098315720A13198313520A1319D318F2534
:104AFE00A13197310727A1318A31AA22A1318631FE
:104B0E00F926A131E83020008631A126A131883165
:104B1E007A20A1318731B727A131B131B321A1312B
:104B2E008731AD27A131B4316124A1319831F42000
:104B3E00A131F03086314826A1318A31AA22A13125
:104B4E0099313F21A1319D318F25A1318731942794
:104B5E00A1319A3099318521A1318A31AA22A13110
:104B6E0087310527A131B4317224A1310318EA2D02
:104B7E00E8308631A126A13188317A20A1318731E2
:104B8E00B727A131B131B321A1318731AD27A13181
:104B9E00B4316124A1319831F420A131F030863145
:104BAE004826A1318A31AA22A13199313F21A13162
:104BBE009D318F25A13187310C27A1312200BD01F6
:104BCE00BD0A2400082E210098315720A1319831BA
:104BDE003520A1319D318F25A13197310727A13184
:104BEE008A31AA22A1318631F926A1319A302000CC
:104BFE0099318521A1318A31AA22A131983198208B
:104C0E00A13145082500E300240046082500E400F4
:104C1E00240047082500E50020006A0B1E2EC83030
:104C2E008631B026A13187314E27A1314A2E6A082E
:104C3E00023A031D2A2EC8308631B026A1318731A3
:104C4E004427A1314A2E6A08033A031D362EC83076
:104C5E008631B026A13187313A27A1314A2E6A0812
:104C6E00043A031D422EC8308631B026A131873159
:104C7E003027A1314A2E6A08053A031D5D2EC83031
:104C8E0098314820A131200099311821A1312000FE
:104C9E00B8008A31AA22A13199313F21A1319D312B
:104CAE008F25A13187310C27A131642EEA08031D0F
:104CBE00642E2400C501C601C70121005C0B6B2EBA
:104CCE0020008030B301722E5C08023A031D752E4F
:104CDE0033302000B300B4003F30992E5C08033A05
:104CEE00031D7E2E66302000B300E6308E2E5C084B
:104CFE00043A031D862E20008030B3018E2E5C08F0
:104D0E00053A031D912E9A302000B3001930B400DD
:104D1E003E30992E5C08063A031DA42ECD30873105
:104D2E006327A13199315221A1312000B8008A3177
:104D3E00AA22A13198319820A13121003E0BAC2E30
:104D4E0020003F30B301B401B42E3E08023A031DD9
:104D5E00C02ECD308731B227A13199315221A131E8
:104D6E002000B8008A31AA22A13198319820A131B1
:104D7E00C82E3E08033A031DC82E2400C501C601E5
:104D8E00C7012100BC08031DD12EC608031DD12E5C
:104D9E002000E72E3C0BDD2EC608031DDD2E390349
:104DAE000319DB2E3A0BF42E0000022F3C08023AB8
:104DBE00031D022FC608031D022F20006A0BEE2EC4
:104DCE003F30B301B40199315221A131FA2E023094
:104DDE006A02031C022F2100D62E9931A021A13187
:104DEE0099311821A1312000B8008A31AA22A131AF
:104DFE0098319820A13121003B0B0C2FC608031DC2
:104E0E000C2F2400C501C601C7012100BF01BF0A36
:104E1E00220024082000D800220023082000D700FA
:104E2E004530AA311E22A13157082500AC002000C2
:104E3E0058082500AD00200059082500AE002C08AA
:104E4E002000C20025002D082000C30025002E08DA
:104E5E002000C400230024082000C50023002508DC
:104E6E002000C600230026082000C7008B310F2328
:104E7E00A13142082300A400200043082300A5000E
:104E8E00200044082300A60024082000D10023009F
:104E9E0025082000D2002300260887317127A13172
:104EAE00B4317224A131031C622F2300F430A4010B
:104EBE00A50043307C2F87315827A131D300230022
:104ECE0024082000D400230025082000D50023004C
:104EDE0026082000D600B4317224A131031C7D2F88
:104EEE002300A030A401A5004030A6002300240812
:104EFE002000D100230025082000D2002300260820
:104F0E002000D3009E310026A13152082100A600B8
:104F1E00200051082100A50024004708460445043E
:104F2E00031D9C2F2100A501A60121009931082106
:104F3E00A1319D313E25A1312200BD01CD2F23008F
:104F4E0099312421A1318631D626A131B431612483
:104F5E00A13198318520A131B4317224A1310318C9
:104F6E00CD2F21003808023A031DCD2F0030260226
:104F7E000B3003192502031CC72FFF30A507A63DD2
:104F8E0099310821A1319D313E25A1312300AF0178
:104F9E00B001FD2F99313021A131B4316124A131FD
:104FAE0098317E20A1319831E720A131B43172249D
:104FBE00A1310318CD2F21003808023A031DCD2F41
:104FCE00230087319B27A13103192F02031CFD2FCC
:104FDE0003302100B80002309831DD20A1319D311F
:104FEE003E25A1312300AF01B001FC2F2200B101FB
:024FFE000800A9
:10508A002000E601E7010D0E890C890CE621A83102
:10509A000E0E890C890CE621A8310E0E890CE62128
:1050AA00A8310E0EE621A8316C282200A901822817
:1050BA002200EE01EE0A652802302200EE002200EC
:1050CA00A901A90A822803306228043062286708E5
:1050DA00003A0319712864286608073A03195D28FB
:1050EA000C3A03196128063A03196828033A031986
:1050FA006A28013A03195A286428A908031D27298E
:10510A006E08103A031D1629272900002200BB0148
:10511A0024292100360B2429BD019F31CA27A83131
:10512A00BA21A8312100BC013C082000DE0037303A
:10513A00BA21A83121000A22A831BA21A8312100B6
:10514A00C60103229E315526A8312000A301A401DD
:10515A009E315A26A831D7219F315E27A8319D3129
:10516A001325A8319D31F125A8319F317027A83127
:10517A009D313E25A83122008E15DC21A83122005E
:10518A000E14E121C830A300A4019D311325A831D2
:10519A009F31B027A8319D313E25A8310F229D317C
:1051AA006C25A831A301A4019D311325A831200043
:1051BA00A301A4019D313E25A831D7219F315E2745
:1051CA00A8319D311325A8319D31F125A8319F3190
:1051DA007027A8319D313E25A8312200CC01250037
:1051EA00FA21A8311522A83124292100360B2429B5
:1051FA00BD01BD0A9F31CA27A831BA21A8312100B1
:10520A00BC01BC0A99282100360B24290230BD00B2
:10521A009F31CA27A831BA21A83102302100BC0027
:10522A0099286E08013A03198A28033A03198E2825
:10523A00013A0319FA28073A0319082924291030D0
:10524A002200EE006E0BAB29290BAB29BB08031D0C
:10525A00AB2950303C0203183429BC0AAC2901306E
:10526A00BC012100B6061A22A831BA21A8312200AF
:10527A00BB01BB0A2100B608031D4C290430C60035
:10528A000A22A831BA21A8310322A831AC29C601C1
:10529A0022000C17CA012500C901CA010322A8313C
:1052AA000A22A831BA219E315526A8312000A3012D
:1052BA00A4019E315A26A831D7219F315E27A831F1
:1052CA009D311325A8319D31F125A8319F317027D1
:1052DA00A8319D313E25A83122008E15DC21A83146
:1052EA0022000E14E121C830A300A4019D31132528
:1052FA00A8319F31B027A8319D313E25A8310F2210
:10530A009D316C25A831A301A4019D311325A83133
:10531A002000A301A4019D313E25A831D7219F3148
:10532A005E27A8319D311325A8319D31F125A83179
:10533A009F317027A8319D313E25A8312200CC012A
:10534A002500FA21A8311522A831AC29BC01200078
:10535A008C1FB4292200B6012100B901B90A200024
:10536A008E1C08002200B7010800DF0023009518F0
:10537A00BB2920005F0823009100920120005E08EB
:10538A00230093003F30950503108B1B03148B13E6
:10539A00151555309600AA30960095141511031864
:1053AA008B17080021008D1628001711080021000C
:1053BA008D1228001715080021000C1220001C1558
:1053CA0008000139E000E1016708E3006608E2002D
:1053DA00E235E30D60086204E40061086304E50055
:1053EA006408E6006508E7000800A001A101A2011F
:1053FA00A301A401A501A601A70108002200C0017A
:10540A002100B701B801B5010800BB013B08200023
:10541A00DE003934E8302000A3000330A40008007D
:10542A00A801A901AA01AB01080036082000DE0084
:10543A0038342100EC002030E601E7004130E80072
:10544A0020005808AC005708AB008F314927AA3111
:10545A00A027AA3121006C085E27AA318227AA3127
:10546A00CF26AA314E082100ED0020004F08210066
:10547A00EE00200050082100EF0022003D0B6C2AAC
:10548A0020004030D101D201E626B4317224AA317B
:10549A00031C582A21000E27AA31E227B4317224AC
:1054AA00AA310318AE2A21000E27AA31DC27B4310B
:1054BA007224AA310318922A8030D101D200C03056
:1054CA00E626B4317224AA31031CCB2A922A21007F
:1054DA003F0B982A20005227AA31E626B4317224BB
:1054EA00AA31031C812A21000E27AA318E27B43142
:1054FA007224AA310318AE2A21000E27AA31F627F0
:10550A00B4317224AA310318922A4030D101D20050
:10551A00C030E626B4317224AA3121004830E601AF
:10552A00E7004330CA2A3F08023A031DCB2A20006B
:10553A005227AA31E626B4317224AA31031CB32AAF
:10554A0021000E27AA318E27B4317224AA31031CF6
:10555A00B32A2100ED01EE01EF01CB2A21000E272B
:10556A00AA31A727B4317224AA310318C52AC03038
:10557A00D101D201E626B4317224AA31031CCB2A06
:10558A002100C830E601E7004230E80021006D083A
:10559A002000C20021006E082000C30021006F080D
:1055AA002000C40021006C08123E5E27AA31C027E1
:1055BA008B310F23AA3121007727AA312000AC278B
:1055CA00AA3121006C08123E8600403F20007D2748
:1055DA00AA316427B4317224AA31031CFB2A2100A0
:1055EA007727AA310030FB27AA31102BC030D1010E
:1055FA00D201D30021006C08123E5E27AA31D627B9
:10560A00B4317224AA31031C102B21007727AA3146
:10561A000030EC27AA3121006C080F3E5E27AA3120
:10562A00BA27AA3121006C080C3E8600403F2000B0
:10563A008227AA31CF26AA314E082100DD00200098
:10564A004F082100DE00200050082100DF006C080E
:10565A000C3E5E27AA31DA00413FDB00423FDC0004
:10566A0021006C080F3E860020005A08C03F5B08E4
:10567A00C13F5C08C23F21006C080C3E86006D08E1
:10568A00C03F6E08C13F6F08C23F6D082000B300DB
:10569A0021006E082000B40021006F082000B50028
:1056AA0021006C08033E8600403F200071278A31A2
:1056BA00AA22AA3133082100E00020003408210080
:1056CA00E100200035082100E2006C08123E5E2746
:1056DA00AA31D127AA31B50021006C08063E8600FE
:1056EA00403F200071278A31AA22AA31562766082C
:1056FA002000B300210067082000B40021006808D8
:10570A002000B500210060082000B60021006108D1
:10571A002000B700210062082000B8008A31AA22BE
:10572A00AA31B3278B310F23AA3142082100E300A3
:10573A00200043082100E400200044082100E5007D
:10574A005D082000B30021005E082000B40021009B
:10575A005F082000B50021006C08093E5E27AA31C7
:10576A0071278A31AA22AA31562763082000C50068
:10577A00210064082000C600210065082000C70037
:10578A008B310F23AA3142082100E9002000430887
:10579A002100EA00200044082100EB000E27AA316C
:1057AA00F627B4317224AA31031CE52BA030D101AB
:1057BA00D2004030E626B4317224AA310318F82BFD
:1057CA004030D101D200C030E626B4317224AA3169
:1057DA00031C042C21000E27AA318827B431722415
:1057EA00AA31031C042C210069082027AA31A72703
:1057FA00B4317224AA3103184B2CC0304F2C873194
:10580A005827AA31E626B4317224AA31031C162C71
:10581A0021000E27AA318827B4317224AA3103182D
:10582A003E2C210069082027AA31CB27B4317224E3
:10583A00AA31031C262C2100A030E901EA004030DD
:10584A00732CA0301A2769082000D40021006A08A6
:10585A002000D50021006B082000D600B431722444
:10586A00AA31031C742C2100A030E901EA00C030DF
:10587A00732C21003A0803195A2C69082027AA31E7
:10588A00C627B4317224AA31031C4E2C21004030A1
:10589A00712CBF30D101D2014427B4317224AA310C
:1058AA00031C742C2100C030712C69082027AA31EE
:1058BA00C627B4317224AA31031C662C21003F305A
:1058CA00712CBF30D101D2014427B4317224AA31DC
:1058DA00031C742C2100BF30E901EA01EB0021000E
:1058EA0069082000D70021006A082000D80021009A
:1058FA006B082000D900080021002030E601E700EB
:10590A004130E80020005A08AC005908AB008F313A
:10591A004927AA31A027AA315708860058088700C4
:10592A00403F8227AA31CF26AA314E082100EC0037
:10593A0020004F082100ED00200050082100EE0051
:10594A0022003E0BCF2C20004030D101D201F42698
:10595A00B4317224AA31031CBB2C21000227AA31BC
:10596A00E227B4317224AA310318112D210002272B
:10597A00AA31DC27B4317224AA310318F52C8030FD
:10598A00D101D200C030F426B4317224AA31031CEA
:10599A002E2DF52C21003F0BFB2C20005227AA317B
:1059AA00F426B4317224AA31031CE42C2100022704
:1059BA00AA318E27B4317224AA310318112D21007D
:1059CA000227AA31F127B4317224AA310318F52C1F
:1059DA004030D101D200C030F426B4317224AA3149
:1059EA0021004830E601E70043302D2D3F08023AF6
:1059FA00031D2E2D20005227AA31F426B431722419
:105A0A00AA31031C162D21000227AA318E27B43190
:105A1A007224AA31031C162D2100EC01ED01EE01BE
:105A2A002E2D21000227AA31A727B4317224AA31C8
:105A3A000318282DC030D101D201F426B4317224C2
:105A4A00AA31031C2E2D2100C830E601E70042309E
:105A5A00E80021006C082000C20021006D08200027
:105A6A00C30021006E082000C4006A27AA31C0279B
:105A7A008B310F23AA315708860058088700523104
:105A8A00AC27AA316A27AA317D27AA316427B43103
:105A9A007224AA31031C5A2D570886005808870019
:105AAA0000305231FB27AA316C2DC030D101D2010E
:105ABA00D3006A27AA31D627B4317224AA31E7273C
:105ACA00AA31031C6E2D00305231EC27AA31E72788
:105ADA00AA314F31403FBA27AA319A27AA31403F0B
:105AEA008227AA31CF26AA314E082100DD002000E4
:105AFA004F082100DE00200050082100DF002000AE
:105B0A009A27AA31403FDB00413FDC00423FDD00DB
:105B1A0057088600580887004F315B08C03F5C0869
:105B2A00C13F5D08C23F9A27AA3121006C08C03FD5
:105B3A006D08C13F6E08C23F6C082000B300210007
:105B4A006D082000B40021006E0820009427AA31B5
:105B5A004331403F71278A31AA22AA3133082100F2
:105B6A00E000200034082100E1002000350821006F
:105B7A00E20020006A27AA31D127AA319427AA3144
:105B8A004631403F71278A31AA22AA315627660830
:105B9A002000B300210067082000B4002100680833
:105BAA002000B500210060082000B600210061082D
:105BBA002000B700210062082000B8008A31AA221A
:105BCA00AA31B3278B310F23AA3142082100E300FF
:105BDA00200043082100E400200044082100E500D9
:105BEA005D082000B30021005E082000B4002100F7
:105BFA005F0820009427AA314931403F71278A3132
:105C0A00AA22AA31562763082000C5002100640889
:105C1A002000C600210065082000C7008B310F2331
:105C2A00AA3142082100E900200043082100EA00C5
:105C3A00200044082100EB000227AA31F127B431E1
:105C4A007224AA31031C332EA030D101D200403075
:105C5A00F426B4317224AA310318462E4030D101F9
:105C6A00D200C030F426B4317224AA31031C522E59
:105C7A0021000227AA318827B4317224AA31031CD1
:105C8A00522E210069082B27AA31A727B431722482
:105C9A00AA310318992EC0309D2E87315827AA3170
:105CAA00F426B4317224AA31031C642E210002277F
:105CBA00AA318827B4317224AA3103188C2E210004
:105CCA0069082B27AA31CB27B4317224AA31031CC5
:105CDA00742E2100A030E901EA004030C12EA03024
:105CEA001A2769082000D40021006A082000D5007C
:105CFA0021006B082000D600B4317224AA31031C9B
:105D0A00C22E2100A030E901EA00C030C12E2100D4
:105D1A0039080319A82E69082B27AA31C627B431D6
:105D2A007224AA31031C9C2E21004030BF2EBF30A2
:105D3A00D101D2013627B4317224AA31031CC22EF2
:105D4A002100C030BF2E69082B27AA31C627B431DB
:105D5A007224AA31031CB42E21003F30BF2EBF305B
